:100000001BEF0EF00000000000EF00F00000000009
:0A0010000000000000000000F3D71C
:0C001C00060E0D6E0D2EFED70000120027
:0A002800F9DF8188F7DF81981200EC
:06003200000000001200B6
:0E003800026A016A006A086A036A000E12007A
:100046000B840BAE2EEF00F0010E036E026A016AFE
:0A005600006A0A360232FF0E1200A3
:080060000AAE029E000E120020
:100068007F0E03018015016E01C080F301AC03D03F
:0C0078008180819202D081908182120070
:10008400FF0E956ED4DFD3DF8184819881868188C9
:10009400C3DF83CF80F381988196C9DFC8DF956A77
:0600A40080C300F0120011
:0E00AA0081988184819680C383FFB9DF1200A4
:1000B80081948196B80E03018011836EB1DF12001E
:1000C8000B820BAE6EEF00F00368026801680068EF
:0800D8000A360232FF0E12008D
:1000E0000B6A0A6A096A00500402F4CF09F0F3CFE0
:1000F00008F001500502F4CF0BF0F3CF0AF00050E6
:100100000502F3500926F4500A22E86A0B22015036
:100110000402F3500926F4500A22E86A0B2208C0B0
:1001200000F009C001F00AC002F00BC003F0120099
:100130007F0E03018015006E00C080F381948196CC
:10014000BF0E001600C080F3008C00C080F300C01A
:0601500083FF6ADF1200CC
:0C0156000E0E0D6E0D2EFED700001200E4
:1001620003014851765D006E49C301F0000E01564D
:100172004AC304F0000E056EB2DF00C07EF301C078
:100182007FF377C380F3D3DF78C380F394DF7A6B96
:100192004A517A5D45E277C380F365DF78C380F325
:1001A2008ADF77C380F3C3DF6CDF00C07BF369DFD4
:1001B20000C07BF377C380F356DF78C380F37BDF25
:1001C20077C380F3B4DF7E514525F66E7F51462119
:1001D200F76E000E7FBFFF0E4721F86E0900F5CFC4
:1001E20000F000C07CF37E4B7F2B001C7D6F09D09A
:1001F2007DC37BF30FD07CC37BF30CD07C517B1B84
:1002020009D07951000AF4E07951010AF4E07951F8
:10021200020AF4E07BC380F347DF772B7A2BB8D74F
:1002220077C380F320DF78C380F345DF77C380F3A1
:100232007EDFFF0E7C6F7D6B0CD07CC37BF37CC3B7
:1002420080F332DF0CD07DC37BF37DC380F32CDFE0
:1002520006D07951000AF1E07951010AF4E0120066
:10026200086A096A100E0C6E013408360936045009
:10027200085E0550D8A0053C095ED8B007D00450EE
:1002820008260550D8B0053C0926D890003601361C
:060292000C2EEAD7120059
:100298000CB08EEF01F00CA234EF02F00E6A000EE3
:1002A8000264A5EF01F0F00E0214D8A470EF01F07B
:1002B800023A01380F0B02260138F00B016E0038A4
:1002C8000F0B01260038F00B006E08380F0B0026C4
:1002D8000838F00B086E0E84D89002BE89EF01F042
:1002E80008360036013602360E2A02BE89EF01F0C2
:1002F80008360036013602360E2A02BE89EF01F0B2
:1003080008360036013602360E2A0E5003642AEFEC
:1003180002F0035E0BBC08AE2FEF02F0D880800E0F
:1003280008640030000E002201220222D8A02FEF1C
:1003380002F0023201320032034A34EF02F02FEFAA
:1003480002F001C002F000C001F008C000F0086A25
:10035800000E0E860264DCEF01F0F00E0214D8A441
:10036800C4EF01F0023A01380F0B02260138F00BF6
:10037800016E00380F0B01260038F00B006E0E845A
:10038800D89002BE89EF01F00036013602360E2AF7
:1003980002BE89EF01F00036013602360E2A02BE8F
:1003A80089EF01F00036013602360E2A89EF01F096
:1003B80001C002F000C001F0006A000E0E960E881F
:1003C800026409EF02F0F00E0214D8A4F4EF01F071
:1003D800023A01380F0B02260138F00B016E0E8429
:1003E800D89002BE89EF01F0013602360E2A02BE0D
:1003F80089EF01F0013602360E2A02BE89EF01F0BC
:10040800013602360E2A89EF01F001C002F0016AB6
:10041800000E0E86026439EF02F0F00E0214D8A422
:1004280018EF02F0023A0E84D89002BE89EF01F06C
:1004380002360E2A02BE89EF01F002360E2A02BEEB
:1004480089EF01F002360E2A89EF01F0010E0C6ED9
:10045800F6DD3CEF02F0020E0C6EFEDD3CEF02F022
:10046800040E0C6E2DDE3CEF02F0080E0C6EE0DD83
:02047800120070
:10047A000C6A0E6A0250D8A456EF02F001C002F0CC
:10048A0000C001F0006A0E860250D8A456EF02F0AE
:10049A0001C002F0016A0E960E880250D8B468EFC5
:1004AA0002F00E50035ED8A4D8A06DEF02F0D890E7
:1004BA0002BE72EF02F0003601360236032E5DEFFD
:1004CA0002F06DEF02F0010E0C6EB1DD75EF02F075
:1004DA00020E0C6EB3DD75EF02F0040E0C6EBBDD7E
:0204EA001200FE
:1004EC000B800BAE82EF02F0026A0AAEFF0E026EB8
:0C04FC00016E006E0A360232FF0E120084
:10050800819081820301716B715107080EE371C3F9
:1005180080F3CEDD706B70513F0805E36FC380F345
:10052800C0DD702BF8D7712BEFD781928180716B6A
:10053800715107080EE371C380F3BADD706B705117
:100548003F0805E36FC380F3ACDD702BF8D7712B40
:04055800EFD71200C7
:10055C006FC345F370C346F371C347F374C348F3D9
:0E056C0075C349F372C34AF373C344F312001C
:10057A000301746B74516F25E96E000E7021EA6EE7
:10058A00EE5216E074516F25E96E000E7021EA6E84
:10059A00EECF76F371C377F372C378F373C379F34B
:1005AA00DBDD4A51010F006E00507127742BE2D730
:0205BA0012002D
:1005BC00025006180E6E086A096A0B6A035007642B
:1005CC00D1EF03F006500A6E068E028E03500B6EAE
:1005DC000750036E000E0B6421EF03F00B50075E07
:1005EC00D8B4C2EF03F0070E076490EF03F0075E78
:1005FC0000C008F001C000F002C001F0026A074E12
:10060C00C2EF03F0076465EF03F0075E00C008F06B
:10061C0001C000F0016A074EC2EF03F0076443EF1C
:10062C0003F0075E00C008F0006A074EC2EF03F04B
:10063C0007642AEF03F00AC002F005C001F004C001
:10064C0000F0086AECEF04F0030E076435EF03F0DA
:10065C00075E08380F0B086E074EC2EF03F0D890F8
:10066C000832074EC2EF03F0D8900832074EC2EFA3
:10067C0003F0D8900832C2EF03F0030E076454EF76
:10068C0003F0075E08380F0B086E0038F00B0826D5
:10069C0000380F0B006E074EC2EF03F0D8900032FB
:1006AC000832074EC2EF03F0D89000320832074EE2
:1006BC00C2EF03F0D89000320832C2EF03F0030E01
:1006CC0007647CEF03F0075E08380F0B086E0038E8
:1006DC00F00B082600380F0B006E0138F00B0026CB
:1006EC0001380F0B016E074EC2EF03F0D8900132A8
:1006FC0000320832074EC2EF03F0D89001320032BC
:10070C000832074EC2EF03F0D890013200320832A3
:10071C00C2EF03F0030E0764ADEF03F0075E083879
:10072C000F0B086E0038F00B082600380F0B006E0C
:10073C000138F00B002601380F0B016E0238F00B5C
:10074C00012602380F0B026E074EC2EF03F0D89051
:10075C000232013200320832074EC2EF03F0D89059
:10076C000232013200320832074EC2EF03F0D89049
:10077C000232013200320832096A000E0EAEB6EFB8
:10078C0004F0081E001E011E021E082A002201226F
:10079C000222B6EF04F00750D8A4D7EF03F0ECEF29
:1007AC0004F0096A02C00AF0028E068E0750035C40
:1007BC00076ED8B4A9EF04F0070E076477EF04F0C6
:1007CC00075E0450096E0550046E0650056E066AED
:1007DC00074EA9EF04F0070E07644CEF04F0075E18
:1007EC000450096E0550046E056A074EA9EF04F01B
:1007FC00070E07642AEF04F0075E0450096E046AC2
:10080C00074EA9EF04F0070E076411EF04F00AC0BD
:10081C0002F0ECEF04F0030E07641CEF04F0075E2B
:10082C0009380F0B096E074EA9EF04F0D890093266
:10083C00074EA9EF04F0D8900932074EA9EF04F047
:10084C00D8900932A9EF04F0030E07643BEF04F0D3
:10085C00075E09380F0B096E0438F00B09260438B3
:10086C000F0B046E074EA9EF04F0D8900432093236
:10087C00074EA9EF04F0D89004320932074EA9EFC5
:10088C0004F0D89004320932A9EF04F0030E076487
:10089C0063EF04F0075E09380F0B096E0438F00B98
:1008AC00092604380F0B046E0538F00B04260538A6
:1008BC000F0B056E074EA9EF04F0D89005320432E9
:1008CC000932074EA9EF04F0D890053204320932F0
:1008DC00074EA9EF04F0D890053204320932A9EF83
:1008EC0004F0030E076494EF04F0075E09380F0B55
:1008FC00096E0438F00B092604380F0B046E05380A
:10090C00F00B042605380F0B056E0638F00B052688
:10091C0006380F0B066E074EA9EF04F0D89006327E
:10092C00053204320932074EA9EF04F0D890063292
:10093C00053204320932074EA9EF04F0D890063282
:10094C00053204320932086A000E0EAEB6EF04F01E
:10095C00091E041E051E061E092A04220522062253
:10096C00095008260450002205500122065002228C
:10097C000EBECDEF04F0D8A0DCEF04F00232013251
:10098C0000320832033EDCEF04F0E6EF04F0D8B09E
:10099C00E1EF04F0000E081E001E011E021E082AC4
:1009AC000022012202220A7EE1EF04F0010E0C6EFD
:1009BC006DDCEEEF04F0020E0C6E68DCEEEF04F072
:1009CC00040E0C6E64EC00F0EEEF04F0000E0C6EF6
:0209DC00120007
:1009DE00086A096A000E0762036474EF05F002509C
:1009EE0006180A6E075003267E0ED8A005EF05F0F6
:1009FE00035ED8B079EF05F009EF05F0035ED8A0DD
:100A0E007EEF05F0028E068E02C00EF001C00BF0D6
:100A1E0000C00DF000500402F4CF0CF0015005029E
:100A2E00F4CF00F0F3CF08F00402F3500C26F4508C
:100A3E000822000E00220D500502F3500C26F45031
:100A4E000822000E002202500402F3500826F45031
:100A5E00002202500502016A000E0122F350002608
:100A6E00F45001220D500602F3500826F4500022D5
:100A7E00026A000E012202220B500602F3500026DB
:100A8E00F4500122000E02220E500602F3500126EF
:100A9E00F450022202BE5CEF05F008360036013635
:100AAE0002360306D8B47EEF05F06FEF05F0D8805E
:100ABE00800E08640030000E002201220222D8A00F
:100ACE006FEF05F0023201320032034A79EF05F082
:100ADE000AAE029E000E81EF05F0010E1CEC00F036
:100AEE0081EF05F0020E64EC00F081EF05F0040ECC
:060AFE0023EC00F01200E1
:100B04000B6A0C6A0A6A0350D8B4CCEF05F0028E63
:100B14008E0E035E03BE94EF05F0D8B494EF05F097
:100B2400D0EF05F0036C080E035CD8A0ABEF05F022
:100B3400036E013602C001F0026A080E035CD8A0FD
:100B4400ABEF05F00136016A0350D8A4D890B5EF95
:100B540005F00350D8B4B5EF05F0D8900232013255
:100B6400032EAFEF05F00BBC01A0C2EF05F0D8A037
:100B7400C2EF05F0012AD8B4022A02BEDFEF05F065
:100B84000AAEE4EF05F0021E011E012AD8B4022ABF
:100B9400E4EF05F0026A016AE4EF05F00B800BAEA6
:100BA400E8EF05F0026A0AAEE8EF05F0FF0E026E08
:100BB400016E0A360232E8EF05F0010E0C6E94DC89
:100BC400EAEF05F0000E0C6EEAEF05F0FF0E0C6E76
:0A0BD4000150006E0250016E120085
:100BDE00939A939893949396939C939E819A956AE5
:100BEE008194819681908182818A3F0E836E14EC6E
:100BFE0000F0C00E836E14EC00F0818081923F0EE7
:100C0E00836E14EC00F0C00E836E14EC00F0050E33
:100C1E0003014A6F070E446FA70E456F2E0E466FE7
:0E0C2E00000E476F200E486F000E496F120037
:100C3C000301736B050E735D0AE273517125E16E4E
:100C4C00000E7221E26E200EE66E732BF3D77351F9
:100C5C007125E16E000E7221E26EE66A7307735124
:100C6C007125746F000E7221756F0A0E046E000EE2
:100C7C00056E6FC300F070C301F031EC01F008C0D9
:100C8C0000F009C001F0300E002674C3E1FF75C3FB
:100C9C00E2FF00C0E6FF0A0E046E000E056E6FC385
:100CAC0000F070C301F031EC01F000C06FF301C033
:100CBC0070F3000E011802E1000E001801E102D0E1
:060CCC007307CDD71200F2
:100CD2000050086E0150006E016A026A036A0B6AD4
:100CE2000C6A960E036E0A6A00C001F008C000F09A
:0A0CF200086A026A3DEC02F01200ED
:100CFC00150E0B6E4B0E0C6EBE0E0D6E0D2EFED722
:0C0D0C000C2EFCD70B2EFAD700001200B2
:100D18000301736B746B756B7351070845E3806B44
:100D280034EC00F073C380F35CEC00F0806B98EC5B
:100D380000F0726B72513F0812E374516F25F66E22
:100D480075517021F76E000E7121F86E0900F5CF0C
:100D580080F355EC00F0744B752B722BEBD7400EDB
:100D6800806F34EC00F073C380F35CEC00F0400E4D
:100D7800806F98EC00F0400E726F72517F0812E39A
:100D880074516F25F66E75517021F76E000E712142
:100D9800F86E0900F5CF80F355EC00F0744B752B15
:0A0DA800722BEBD7732BB8D71200A3
:100DB200C26AC00EC212C18CC18E6FC300F000366F
:100DC200009000360090003600900050C212C2809F
:100DD200ABEC00F0C284C2A401D0FDD7C4CF01F0B5
:0E0DE200006AC3500012000E0112C2901200EF
:100DF000F6DE6F6B84EC02F0A70E6F6F2E0E706F35
:100E0000000E716F050E726F070E736F200E746FF8
:100E1000000E756FAEEC02F0C50E6F6F000E706FB6
:100E2000716B726B020E736FBDEC02F0DB0E6F6FB5
:100E3000000E706F716B010E726F020E736FBDEC5E
:100E400002F0366B376B636B646B800E6419006E57
:100E5000800E005C02E10A0E635D0FE2040E6F6F0C
:100E6000A8DF00C038F301C039F300500301362772
:100E700001503723634B642BE8D70A0E046E000E33
:100E8000056E36C300F037C301F031EC01F000C04D
:100E90003AF301C03BF300C06FF301C070F35B0E87
:100EA000716F030E726FCADE150E6F6F000E706FDA
:100EB000716B020E726F020E736FBDEC02F05B0E6F
:100EC0006F6F030E706F5F0E716F020E726F020E06
:100ED000736FBDEC02F03951355D02E13851345D7C
:100EE00005E238C334F339C335F304D034C336F3E1
:100EF00035C337F336C36FF337C370F35B0E716FCF
:100F0000030E726F9BDE230E6F6F000E706F716B9E
:100F1000030E726F020E736FBDEC02F05B0E6F6F0B
:100F2000030E706F5F0E716F030E726F020E736FA0
:100F3000BDEC02F03D51395D02E13C51385D05E206
:100F400038C33CF339C33DF304D03CC336F33DC34F
:100F500037F336C36FF337C370F35B0E716F030E55
:100F6000726F6CDE650E6F6F000E706F716B040E2A
:100F7000726F020E736FBDEC02F05B0E6F6F030EAB
:100F8000706F5F0E716F040E726F020E736FBDECA7
:100F900002F0730E6F6F000E706F716B070E726F41
:100FA000020E736FBDEC02F0310E6F6F000E706FAA
:100FB000716B050E726F020E736FBDEC02F0880E3E
:100FC0006F6F1C0E706F000E716F080E726F070E40
:100FD000736F200E746F000E756FAEEC02F0010E91
:100FE0003B5D02E12D0E3A5D12E33B51010802E147
:100FF0003A517C080CE3470E6F6F000E706F716BF7
:10100000060E726F020E736FBDEC02F037D0000E49
:101010003B5D02E1330E3A5D12E33B51010802E110
:101020003A512C080CE3560E6F6F000E706F716B07
:10103000060E726F020E736FBDEC02F01FD0000E31
:10104000006E3B51005C02E13A5132080CE3BA0EEB
:101050006F6F010E706F716B060E726F020E736F01
:10106000BDEC02F00BD0C90E6F6F010E706F716B8B
:10107000060E726F020E736FBDEC02F03FDE3EDEB5
:10108000A70E6F6F2E0E706F000E716F050E726FD0
:10109000070E736F200E746F000E756FAEEC02F0CA
:0210A00012003C
:1010A20082B437D003016F6B84EC02F0880E6F6F4D
:1010B2001C0E706F000E716F080E726F070E736F49
:1010C200200E746F000E756FAEEC02F0430E6F6F60
:1010D200010E706F716B030E726F020E736FBDECB7
:1010E20002F0860E6F6F010E706F716B040E726FDD
:1010F200020E736FBDEC02F0150E0B6E4B0E0C6EF2
:10110200BE0E0D6E0D2EFED70C2EFCD70B2EFAD76F
:10111200000082B22CD003016F6B84EC02F0880EC7
:101122006F6F1C0E706F000E716F080E726F070EDC
:10113200736F200E746F000E756FAEEC02F0950E99
:101142006F6F010E706F716B040E726F020E736F10
:10115200BDEC02F0150E0B6E4B0E0C6EBE0E0D6E3C
:101162000D2EFED70C2EFCD70B2EFAD70000120044
:101172000900F5CFE6FF0006FBE10106F9E11200E6
:10118200A70E03016F6F2E0E706F000E716F050EAA
:10119200726F070E736F200E746F000E756FAEECD8
:1011A20002F0810E6F6F020E706F716B726B020E26
:1011B200736FBDEC02F06B0E6F6F020E706F716B8E
:1011C200010E726F020E736FBDEC02F0596B5A6B17
:1011D200636B646B800E6419006E800E005C02E12A
:1011E2000A0E635D31E26F6BE3DD00C061F301C0A3
:1011F20062F36EDD710E046E3D0E056E7A0E066EA2
:101202007D0E076EEFEC04F000C06BF301C06CF3CF
:1012120002C06DF303C06EF359C300F05AC301F06C
:1012220057DD6BC304F06CC305F06DC306F06EC3EB
:1012320007F0DEEC02F065DC00C059F301C05AF39E
:101242000301634B642BC6D70A0E046E000E056EB3
:1012520059C300F05AC301F031EC01F000C059F358
:1012620001C05AF300C06FF301C070F35B0E716FDF
:10127200030E726FE2DC4B0E6F6F020E706F716BBA
:10128200020E726F020E736FBDEC02F05B0E6F6F97
:10129200030E706F5F0E716F020E726F020E736F2C
:1012A200BDEC02F0536B546B636B646B800E64197C
:1012B200006E800E005C02E10A0E635D33E2010EF5
:1012C2006F6F76DD00C051F301C052F301DD710E84
:1012D200046E3D0E056E7A0E066E7D0E076EEFEC05
:1012E20004F000C06BF301C06CF302C06DF303C0E5
:1012F2006EF353C300F054C301F0EADC6BC304F095
:101302006CC305F06DC306F06EC307F0DEEC02F0AD
:1013120082EC05F000C053F301C054F30301634BA8
:10132200642BC4D70A0E046E000E056E53C300F080
:1013320054C301F031EC01F000C053F301C054F387
:1013420000C06FF301C070F35B0E716F030E726F1A
:1013520074DC5C0E6F6F020E706F716B030E726F36
:10136200020E736FBDEC02F05B0E6F6F030E706FB7
:101372005F0E716F030E726F020E736FBDEC02F09F
:10138200576B586B636B646B800E6419006E800E32
:10139200005C02E10A0E635D33E2020E6F6F08DD4C
:1013A20000C055F301C056F393DC710E046E3D0E7E
:1013B200056E7A0E066E7D0E076EEFEC04F000C02D
:1013C2006BF301C06CF302C06DF303C06EF357C33D
:1013D20000F058C301F07CDC6BC304F06CC305F071
:1013E2006DC306F06EC307F0DEEC02F082EC05F08E
:1013F20000C057F301C058F30301634B642BC4D7F9
:101402000A0E046E000E056E57C300F058C301F0B9
:1014120031EC01F000C057F301C058F300C06FF384
:1014220001C070F35B0E716F030E726F06DCF00E7B
:101432006F6F020E706F716B040E726F020E736F1C
:10144200BDEC02F05B0E6F6F030E706F5F0E716F7B
:10145200040E726F020E736FBDEC02F0696B6A6B61
:10146200636B646B800E6419006E800E005C02E197
:101472000A0E635D33E2030E6F6F9ADC00C067F3FE
:1014820001C068F325DC710E046E3D0E056E7A0E06
:10149200066E7D0E076EEFEC04F000C06BF301C028
:1014A2006CF302C06DF303C06EF369C300F06AC34C
:1014B20001F00EDC6BC304F06CC305F06DC306F0E3
:1014C2006EC307F0DEEC02F082EC05F000C069F3B7
:1014D20001C06AF30301634B642BC4D70A0E046E86
:1014E200000E056E69C300F06AC301F031EC01F031
:1014F20000C069F301C06AF300C06FF301C070F36A
:101502005B0E716F030E726F1EEC06F0250E6F6F8D
:10151200030E706F716B050E726F020E736FBDEC6E
:1015220002F05B0E6F6F030E706F5F0E716F050E30
:10153200726F020E736FBDEC02F00F0E6F6F030E2F
:10154200706F716B060E726F020E736FBDEC02F05C
:10155200880E6F6F1C0E706F000E716F080E726F27
:10156200070E736F200E746F000E756FAEEC02F0F3
:10157200000E006E5451005C02E153513C0812E32C
:10158200000E545D02E1050E535D0CE3000E6F6F19
:10159200030E706F716B070E726F020E736FBDECEC
:1015A20002F045D0000E006E5451005C02E153512E
:1015B200640812E3000E545D02E13D0E535D0CE33C
:1015C200B50E6F6F020E706F716B070E726F020EA7
:1015D200736FBDEC02F02BD0000E006E5451005C14
:1015E20002E153516E0812E3000E545D02E1650EF2
:1015F200535D0CE3A60E6F6F020E706F716B070ED8
:10160200726F020E736FBDEC02F011D0000E545DCA
:1016120002E16F0E535D0BE3970E6F6F020E706F58
:10162200716B070E726F020E736FBDEC02F07EECEF
:1016320006F07EEC06F06F6B84EC02F0A70E6F6F83
:101642002E0E706F000E716F050E726F070E736FA4
:10165200200E746F000E756FAEEC02F0DA0E6F6F33
:10166200020E706F716B726B020E736FBDEC02F043
:10167200C40E6F6F020E706F716B010E726F020EED
:10168200736FBDEC02F06251665D02E16151655D0E
:1016920005E261C365F362C366F316D065C300F069
:1016A20066C301F069EC06F0710E046E3D0E056E24
:1016B2007A0E066E7D0E076EEFEC04F082EC05F0FA
:1016C20000C059F301C05AF359C36FF35AC370F300
:1016D2005B0E716F030E726F1EEC06F0390E6F6FA8
:1016E200020E706F716B020E726F020E736FBDECA1
:1016F20002F05B0E6F6F030E706F5F0E716F020E62
:10170200726F020E736FBDEC02F05251415D02E145
:101712005151405D05E251C340F352C341F316D02B
:1017220040C300F041C301F069EC06F0710E046E93
:101732003D0E056E7A0E066E7D0E076EEFEC04F01E
:1017420082EC05F000C053F301C054F353C36FF3AE
:1017520054C370F35B0E716F030E726F1EEC06F0D2
:10176200A60E6F6F000E706F716B030E726F020E1A
:10177200736FBDEC02F05B0E6F6F030E706F5F0E46
:10178200716F030E726F020E736FBDEC02F0565151
:10179200435D02E15551425D05E255C342F356C332
:1017A20043F316D042C300F043C301F069EC06F0E4
:1017B200710E046E3D0E056E7A0E066E7D0E076E7C
:1017C200EFEC04F082EC05F000C057F301C058F3CF
:1017D20057C36FF358C370F35B0E716F030E726FD2
:1017E2001EEC06F0890E6F6F000E706F716B040EA7
:1017F200726F020E736FBDEC02F05B0E6F6F030E21
:10180200706F5F0E716F040E726F020E736FBDEC1C
:1018120002F068513F5D02E167513E5D05E267C338
:101822003EF368C33FF316D03EC300F03FC301F05E
:1018320069EC06F0710E046E3D0E056E7A0E066EB0
:101842007D0E076EEFEC04F082EC05F000C069F348
:1018520001C06AF369C36FF36AC370F35B0E716F01
:10186200030E726F1EEC06F0960E6F6F000E706F15
:10187200716B050E726F020E736FBDEC02F05B0EA0
:101882006F6F030E706F5F0E716F050E726F020E37
:10189200736FBDEC02F0F10E6F6F000E706F716B23
:1018A200060E726F020E736FBDEC02F0880E6F6F40
:1018B2001C0E706F000E716F080E726F070E736F41
:1018C200200E746F000E756FAEEC02F05A51545D2B
:1018D20002E15951535D0CE2070E6F6F010E706FFA
:1018E200716B070E726F020E736FBDEC02F01FD0A8
:1018F200000E006E5451005C02E153516E080CE27E
:10190200160E6F6F010E706F716B070E726F020E03
:10191200736FBDEC02F00BD0B60E6F6F000E706FDE
:10192200716B070E726F020E736FBDEC02F07EECEC
:0819320006F07EEC06F0120045
:10193A00EFEC05F06F6B84EC02F0A70E6F6F2E0EC2
:10194A00706F000E716F050E726F070E736F200EA7
:10195A00746F000E756FAEEC02F0D80E6F6F010E49
:10196A00706F716B726B020E736FBDEC02F0A40E96
:10197A006F6F010E706F716B010E726F020E736FD3
:10198A00BDEC02F0366B376B636B646B800E6419C7
:10199A00006E800E005C02E10A0E635D17E2050E1E
:1019AA006F6FD9EC06F000C04BF301C04CF300C0D6
:1019BA0002F001C003F0023602900336025003011E
:1019CA00362703503723634B642BE0D70A0E046E85
:1019DA00000E056E36C300F037C301F031EC01F09A
:1019EA0000C04DF301C04EF300C06FF301C070F3A5
:1019FA005B0E716F030E726F1EEC06F0170E6F6F9F
:101A0A00020E706F716B020E726F020E736FBDEC75
:101A1A0002F05B0E6F6F030E706F5F0E716F020E36
:101A2A00726F020E736FBDEC02F04C51505D02E111
:101A3A004B514F5D05E24BC34FF34CC350F307D0F4
:101A4A004FC336F350C337F336373691373736C379
:101A5A006FF337C370F35B0E716F030E726F1EEC78
:101A6A0006F0280E6F6F020E706F716B030E726FA5
:101A7A00020E736FBDEC02F05B0E6F6F030E706F98
:101A8A005F0E716F030E726F020E736FBDEC02F080
:101A9A000101EF5103014C5D04E10101EE51030123
:101AAA004B5D05E24BC3EEF14CC3EFF107D0EEC13B
:101ABA0036F3EFC137F336373691373736C36FF31C
:101ACA0037C370F35B0E716F030E726F1EEC06F074
:101ADA00F00E6F6F010E706F716B040E726F020E53
:101AEA00736FBDEC02F05B0E6F6F030E706F5F0ECB
:101AFA00716F040E726F020E736FBDEC02F0010E6D
:101B0A006F6F020E706F716B070E726F020E736F3A
:101B1A00BDEC02F0520E6F6F010E706F716B050E05
:101B2A00726F020E736FBDEC02F0880E6F6F1C0E9F
:101B3A00706F000E716F080E726F070E736F200EB2
:101B4A00746F000E756FAEEC02F04E51030802E19D
:101B5A004D51E80812E3040E4E5D02E14C0E4D5D54
:101B6A000CE3680E6F6F010E706F716B060E726F69
:101B7A00020E736FBDEC02F035D0040E4E5D02E129
:101B8A004C0E4D5D12E34E51050802E14D517808A5
:101B9A000CE3770E6F6F010E706F716B060E726F2A
:101BAA00020E736FBDEC02F01DD04E51050802E122
:101BBA004D5178080CE2250E6F6F010E706F716B34
:101BCA00060E726F020E736FBDEC02F00BD0340E6C
:101BDA006F6F010E706F716B060E726F020E736F6C
:101BEA00BDEC02F07EEC06F07EEC06F0A70E6F6FFD
:101BFA002E0E706F000E716F050E726F070E736FE7
:0E1C0A00200E746F000E756FAEEC02F012002B
:101C1800880E03016F6F270E706F000E716F8CECCA
:0E1C280006F07EEC06F06F6B84EC02F012000A
:101C360044EC18F0C26AC16AFF0E926E936AE70E10
:101C4600946E826AEFEC05F06F6B84EC02F0880EFE
:101C56006F6F230E706F000E716F8CEC06F07EECCA
:101C660006F051EC08F0D5DF51EC08F0C1EC08F0B5
:101C760051EC08F05FDE51EC08F0F8EC06F0F1D715
:021C8600FFD786
:1030880010EE15F01F0E006E040E016E880EF66E1F
:0E3098002B0EF76E000EF86EB9EC08F0120069
:101C8800000000000000000000065F5F0600000082
:101C98000007070007070000147F7F147F7F1400E8
:101CA800242E6B6B3A120000466630180C666200F0
:101CB800307A4F5D377A48000407030000000000BF
:101CC800001C3E63410000000041633E1C00000010
:101CD800082A3E1C1C3E2A0808083E3E0808000048
:101CE8000080E060000000000808080808080000FC
:101CF80000006060000000006030180C060301005E
:101D08003E7F71594D7F3E0040427F7F404000003A
:101D1800627359496F660000226349497F360000A3
:101D2800181C16537F7F5000276745457D390000F2
:101D38003C7E4B4979300000030371790F0700009E
:101D4800367F49497F360000064F49693F1E00002B
:101D580000006666000000000080E66600000000E3
:101D6800081C366341000000242424242424000095
:101D7800004163361C080000020351590F06000099
:101D88003E7F415D5D1F1E007C7E13137E7C00003C
:101D9800417F7F49497F36001C3E634141632200F1
:101DA800417F7F41633E1C00417F7F495D41630065
:101DB800417F7F491D0103001C3E6341517372003E
:101DC8007F7F08087F7F000000417F7F410000007F
:101DD800307040417F3F0100417F7F081C776300DE
:101DE800417F7F41406070007F7F0E1C0E7F7F0027
:101DF8007F7F060C187F7F001C3E6341633E1C00FA
:101E0800417F7F49090F06001E3F21717F5E000058
:101E1800417F7F09197F6600266F4D597332000094
:101E280003417F7F410300007F7F40407F7F0000A8
:101E38001F3F60603F1F00007F7F3018307F7F00AA
:101E480043673C183C674300074F78784F0700000A
:101E5800476371594D677300007F7F41410000005F
:101E68000103060C183060000041417F7F0000002C
:101E7800080C0603060C0800808080808080808023
:101E88000000030704000000207454543C7840000C
:101E9800417F3F4848783000387C44446C28000033
:101EA800307848493F7F4000387C54545C18000023
:101EB800487E7F490302000098BCA4A4F87C040073
:101EC800417F7F08047C780000447D7D400000004D
:101ED80060E08080FD7D0000417F7F10386C440009
:101EE80000417F7F400000007C7C18381C7C780013
:101EF8007C7C04047C780000387C44447C380000F6
:101F080084FCF8A4243C1800183C24A4F8FC8400A1
:101F1800447C784C041C1800485C54547424000019
:101F280000043E7F442400003C7C40403C7C400050
:101F38001C3C60603C1C00003C7C7038707C3C00A1
:101F4800446C3810386C44009CBCA0A0FC7C000099
:101F58004C64745C4C64000008083E774141000002
:101F680000000077770000004141773E0808000034
:101F7800020301030203010070784C464C7870009C
:101F88000E9F91B1FB4A00003A7A40407A7A4000AD
:101F9800387C54555D19000002237555557D7B42E8
:101FA800217554547D794000217555547C78400042
:101FB800207457577C784000183CA4A4E4400000E3
:101FC800023B7D55555D1B02397D54545D19000057
:101FD800397D55545C18000001457C7C41010000A6
:101FE8000203457D7D43020001457D7C40000000E1
:101FF800797D1612167D790070782B2B7870000089
:10200800447C7C5555450000207454547C7C5454C1
:102018007C7E0B097F7F4900327B49497B32000077
:10202800327A48487A320000327A4A4878300000DA
:102038003A7B41417B7A40003A7A424078784000C6
:102048009ABAA0A0FA7A000001193C66663C190108
:102058003D7D40407D3D0000183C24E7E7242400F6
:10206800687E7F49436620002B2FFCFC2F2B000045
:10207800FFFF09092FF6F8A040C088FE7F09030278
:10208800207454557D79400000447D7D4100000056
:102098003078484A7A320000387840427A7A4000EC
:1020A8007A7A0A0A7A7000007D7D19317D7D0000F8
:1020B80000262F292F2F280000262F292F26000041
:1020C80030784D45602000003838080808080000BE
:1020D80008080808383800004F6F3018CCEEBB915C
:1020E8004F6F30186C76FBF90000007B7B00000016
:1020F800081C3622081C362222361C0822361C08E8
:10210800AA005500AA005500AA55AA55AA55AA55CD
:10211800DDFFAA77DDAAFF77000000FFFF000000BF
:10212800101010FFFF000000141414FFFF0000003F
:102138001010FFFF00FFFF001010F0F010F0F0008B
:10214800141414FCFC0000001414F7F700FFFF003F
:102158000000FFFF00FFFF001414F4F404FCFC006F
:1021680014141717101F1F0010101F1F101F1F0017
:102178001414141F1F000000101010F0F0000000CD
:102188000000001F1F1010101010101F1F1010103B
:10219800101010F0F0101010000000FFFF101010C9
:1021A8001010101010101010101010FFFF10101049
:1021B800000000FFFF1414140000FFFF00FFFF10D1
:1021C80000001F1F101717140000FCFC04F4F4147F
:1021D80014141717101717141414F4F404F4F4143F
:1021E8000000FFFF00F7F714141414141414141447
:1021F8001414F7F700F7F714141414171714141419
:1022080010101F1F101F1F10141414F4F4141414AA
:102218001010F0F010F0F01000001F1F101F1F101A
:102228000000001F1F141414000000FCFC141414F8
:102238000000F0F010F0F0101010FFFF10FFFF107A
:10224800141414FFFF1414141010101F1F000000A2
:10225800000000F0F0101010FFFFFFFFFFFFFFFF6E
:10226800F0F0F0F0F0F0F0F0FFFFFFFF00000000EA
:1022780000000000FFFFFFFF0F0F0F0F0F0F0F0FE2
:10228800387C446C386C4400FCFE2A2A3E1400005A
:102298007E7E020206060000027E7E027E7E02002C
:1022A80063775D4963630000387C447C3C04040028
:1022B80080FE7E20203E1E000406027E7C06020070
:1022C80099BDE7E7BD9900001C3E6B496B3E1C00B9
:1022D8004C7E7301737E4C0030784A4F7D39000084
:1022E800183C243C3C243C1898FC643C3E273D1890
:1022F8001C3E6B49490000007E7F01017F7E000083
:102308002A2A2A2A2A2A000044445F5F44440000FB
:1023180040515B4E4440000040444E5B5140000039
:10232800000000FEFF01070660E080FF7F0000005C
:1023380008086B6B08080000243612362436120091
:1023480000060F090F060000000000181800000022
:102358000000001010000000103070C0FFFF0101E5
:10236800001F1F011F1E000000191D17120000008A
:1023780000003C3C3C3C000000000E1F11111F0EE9
:102388000000000000000000000000000000E0E085
:10239800E0E0E0E0E0E0E0E0E0E0E0E0E0E0E0E035
:1023A800E0E0E0E0E0E0E0E0E0E0E0E0E0000000C5
:1023B8000000000000000000000000000000000015
:1023C800000000000000000000000000002060E0A5
:1023D800E0E0E0E0E0E0E0E0E0E0E0E0E0E0E0E0F5
:1023E800E0E0E0E0E0E0E0E0E0E0E0E0E0E0E0E0E5
:1023F800E0E0E0E000000000000000000000000055
:102408000000000000000000000000000000FFFFC6
:10241800FFFFFFFFFFFFFFFFFFFFFFFFFFFFFFFFC4
:10242800FFFFFFFFFFFFFFFFFFFFFFFFFF000000B1
:102438000000000000000000000000000000000094
:10244800000000000000000000000080C0E0F0FF75
:10245800FFFFFFFFFFFFFFFFFFFFFFFFFFFFFFFF84
:10246800FFFFFFFFFFFFFFFFFFFFFFFFFFFF7F3FB4
:102478001F0F030100000000000000000000000022
:102488000000000000000000000000000000FFFF46
:10249800FFFFFFFFFFFFFFFFFFFFFFFFFFFFFFFF44
:1024A800FFFFFFFFFFFFFFFFFFFFFFFFFF202020D1
:1024B80020202020202020202020203070707078BC
:1024C800F8F8F8F8FCFCFEFEFEFFFFFFFFFFFFFF39
:1024D800FFFFFFFFFFFFFFFFFFFFFFFFFFFFFFFF04
:1024E800DFDF9F8F8F0F070707030101010000003F
:1024F80000000000000000000000000000000000D4
:102508000000000000000000000000000000FFFFC5
:10251800FFFFFFFFFFFFFFFFFFFFFFFFFFFFFFFFC3
:10252800FFFFFFFFFFFFFFFFFFFFFFFFFF000000B0
:102538000000000000000000000000000000000093
:102548000000000000010103030707070F1F3FFFFA
:10255800FFFFFFFFFFFFFFFFFFFFFFFFFFFFFFFF83
:10256800FFFFFFFFFFFFFFFFFFFEFCF8F8F0F0E0C2
:10257800C080000000000000000000000000000013
:1025880000000000000000000000000000003F3FC5
:102598003F3F3F3F3F3F3F3F3F3F3F3F3F3F3F3F43
:1025A8003F3F3F3F3F3F3F3F3F3F3F3F3F000000F0
:1025B8000000000000000000000000000000000013
:1025C80000000000000000000000000000002030B3
:1025D8003F3F3F3F3F3F3F3F3F3F3F3F3F3F3F3F03
:1025E8003F3F3F3F3F3F3F3F3F3F3F3F3F3F3F3FF3
:1025F8003F3F3E3C000000000000000000000000DB
:102608000000000000000000000000000000F0F0E2
:10261800F0F0000080C0E0F0F0F070301000000032
:1026280000000000000000000000000000000000A2
:102638000000000000000000000000000000000092
:102648000000000000000000000000000000000082
:102658000000000000000000000000000000000072
:102668000000F0F0F0F0F0000000000000000000B2
:102678007070707000000000000000000000000092
:102688000000000000000000000000000000FFFF44
:10269800FFFF3E7F7FFFFFFFF3C0800000008CCE6E
:1026A800CEEFE7E7777FFEFEFCF00F7FFFFFF8E055
:1026B800F8FEFF7FFFFCF0F0FCFFFF7F07888CCE61
:1026C800CEEF676777FFFEFCF8003C7E7F7F737371
:1026D800F7EFEECC80008CCECEEFE767777FFFFE7A
:1026E800FC00FFFFFFFFFFF8FCFCFEDE8E06020089
:1026F800FEFEFEFE000000000000000000000000DA
:1027080000000000000000000000000000000F0FA3
:102718000F0F0000000003070F0F0F0F0C00070F2B
:102728000F0F0D0C0C0E0F0F0F0F0000030F0F0FE4
:102738000F0F0000010F0F0F0F0F0100070F0F0FF2
:102748000D0C0C0E0F0F0F0F0F00070F0F0E0C0CB8
:102758000C0F0F070300070F0F0F0C0C0E0F0F0FB6
:102768000F000F0F0F0F0F0101030F0F0F0C0800C1
:102778000F0F0F0F00000000000000000000000015
:1027880000000000000000F0F8F8F8F8F8F8787891
:102798007878787878787878180000F0F8F8F8F889
:1027A800F8F87878F8F8F8F8F8F8F8F8000000F091
:1027B800F8F8F8F8F8F8000000E0F8F8F8F8F8F891
:1027C800000000F0F8F8F8F8F8F878787878787871
:1027D80078787878180000F0F8F8F8F8F8F8787849
:1027E800F8F8F8F8F8F8F8F8000000F0F8F8F8F851
:1027F800F8F87878F8F8F8F8F8F8F8F80000000031
:102808000000000000E0FFFFFFFFFFFF1F0100C006
:10281800F8FCFCFCFCFC7C0000E0FFFFFFFFFFFF76
:102828007F3F3C3C3E3F3F3F3F3F1F030080C0C3CC
:10283800E7FFFFFF7F3E3CFCFEFFFFEFC78303017E
:1028480000E0FFFFFFFFFFFF7F3F3CFCFCFCFCFCC0
:10285800FCFC7C0000E0FFFFFFFFFFFF1F0100C042
:10286800FCFFFFFFFFFF3F0300E0FFFFFFFFFFFF4D
:102878001F0100C0FCFFFFFFFFFF3F030000000037
:10288800000000001E1F1F1F1F1F1F1F1E1E1E1FD0
:102898001F1F1F1F1F0700001E1F1F1F1F1F1F03B3
:1028A8000000000000000000000000001E1F1F1FA5
:1028B8001F1F1F0300001C1F1F1F1F1F1F070000D3
:1028C8001E1F1F1F1F1F1F1F1E1E1E1F1F1F1F1F14
:1028D8001F0700001E1F1F1F1F1F1F1F1E1E1E1F5A
:1028E8009F9F9F9F1F0700001E1F1F1F1F1F1F1F47
:1028F8001E1E1E1F1F1F1F1F1F07000000000000B5
:1029080000000000000000000000000000000000BF
:10291800000000000000008080C0E0F0F0F8F8F847
:102928007000000000000000000080C0F0F8F87C93
:102938001E1F0F86E0E0F8787C7E3E1E1C08000013
:10294800000000000000000000000000000000007F
:10295800000000000000000000E070383C1E1F0F5F
:102968000F0F0707030000000000000000808080B0
:1029780080808000000000000000000000000000CF
:102988000000000000000000000000000080C0E01F
:10299800E0F0F8FC3E1ECFF3FFFFFFFFFF3F070309
:1029A8000080C0E0F0F8FCBEDEEFEFF7F9F9FCFEBE
:1029B800FEFE7EB88080C06060F0F0F8F8FCFCFE97
:1029C800FCF8F0F078B8FCFCFEFEFEFFFF3FBF9F6E
:1029D800EEE0F0F8F8FCFE7E7E1E98C0C0E0E0F065
:1029E800F0F8F8F8787C7C3E9E9EDEFFFFFFFFBF84
:1029F8001F1F0F030000000000000000000000007F
:102A080000000000000080C0E0F0FCFEFFFFFF3F78
:102A18000F0381E0FEFFFFFFFFFF8FF3F1F8FEFEDB
:102A28007F3FDFEFF3F9F8FCFFFFFF7F3F1F1F0F2A
:102A380086E7F3F1F9FCFEFE7F1F0F0F0767F3F936
:102A4800FDFFFFFFFFFF7F7FB7D9E9FCFEFFFFFF18
:102A58007F7F1F0FF7FBFEFFFFFFFFFFF777737303
:102A680039391C1EFEFFFFFFFFFFFF7F7773797860
:102A78003C1C1C1C1E1E1E0F0F0F0F06060000001C
:102A880000000000000F1F1F1F0F0F0703010000A9
:102A9800183E3F3F3F3F3F1F1F1F0F0F0707010013
:102AA800000103030303030101000000000000000C
:102AB80000010103030303000000008080E0F0F040
:102AC800F1F1F9F97C7E7F7F7F1F1F070701010065
:102AD800000000F0F01011F3E301F0F000E0F01056
:102AE80010302000F0F0011110F0F010100000C0BC
:102AF8007070C00000F0F00000000000000000004E
:102B080000000000000000000000000000000000BD
:102B180000000000000000000000000000000000AD
:102B2800000000000000000000000000000000009D
:102B38000000000000000000020203010101010181
:102B4800000000000000000000000000000000007D
:102B58000000001F1F10101F0F001F1F000F1F1065
:102B6800111F0F001F1F0000001F1F0000001C1F67
:102B780002021F1C001F1F101010000000000000A0
:0E2B880043757272656E74206675656C3A0056
:0E2B96004D6178696D616C206675656C3A0062
:102BA4003D3D3D3D3D3D3D3D3D3D3D3D3D3D3D3D51
:062BB4003D3D3D3D3D00EA
:0F2BBA002A2A2A4C4F57204655454C2A2A2A00D2
:0F2BC9002A2A2A4655454C20204F4B2A2A2A00FB
:0E2BD8004D696E696D616C206675656C3A0022
:102BE6003D3D3D3D3D3D3D3D3D3D3D3D3D3D3D3D0F
:062BF6003D3D3D3D3D00A8
:0D2BFC004D6178696D616C206F696C3A0065
:102C09004D6178696D616C20696E74616B653A001C
:102C19004D6178696D616C20656E67696E653A0012
:0F2C29002A2A4E4F205741524E494E472A2A0021
:102C380020202020204655454C2020204C45564534
:062C48004C2020202000BA
:102C4E003D3D3D3D3D3D3D3D3D3D3D3D3D3D3D3DA6
:062C5E003D3D3D3D3D003F
:102C64003D3D3D3D3D3D3D3D3D3D3D3D3D3D3D3D90
:062C74003D3D3D3D3D0029
:0F2C7A0054454D5020205741524E494E4753006C
:0F2C890054454D5020205741524E494E4753005D
:0F2C98002A4F5645524348415247494E472A005A
:0F2CA7002A42415454455259204641494C2A0073
:0F2CB60020475058363030204D454E55202000D5
:102CC5003D3D3D3D3D3D3D3D3D3D3D3D3D3D3D3D2F
:062CD5003D3D3D3D3D00C8
:0F2CDB002A4C4F5720564F4C54414745532A001F
:0F2CEA002A564F4C544147455320204F4B2A0048
:0F2CF9005345545550202620434F4E464947001F
:0F2D08004E4F204F494C205741524E494E4700E5
:102D17003D3D3D3D3D3D3D3D3D3D3D3D3D3D3D3DDC
:062D27003D3D3D3D3D0075
:0F2D2D002A2A4F56455246494C4C45442A2A0003
:0F2D3C002A2A2A4E4F202A4655454C2A2A2A0079
:102D4B00564F4C5441474553202620524547554C2E
:062D5B004154494F4E00F7
:022D6100080761
:102D63004D696E696D616C20766F6C746167653A4D
:012D7300005F
:102D74003D3D3D3D3D3D3D3D3D3D3D3D3D3D3D3D7F
:062D84003D3D3D3D3D0018
:102D8A0043757272656E7420766F6C746167653A0A
:012D9A000038
:102D9B004D6178696D616C20766F6C746167653A13
:012DAB000027
:102DAC004D6178696D616C207261646961746F72D8
:022DBC003A00DB
:102DBE005261646961746F722073656E736F723ADB
:012DCE000004
:0F2DCF00456E67696E652073656E736F723A00AB
:102DDE003D3D3D3D3D3D3D3D3D3D3D3D3D3D3D3D15
:062DEE003D3D3D3D3D00AE
:102DF40054454D5045524154555245202052454169
:062E040044494E47530053
:0F2E0A002A2A4F5645524845415445442A2A002A
:0F2E19002A2A46414E204143544956452A2A0051
:0F2E28002A2A434F4F4C494E47204F4B2A2A002E
:102E37003D3D3D3D3D3D3D3D3D3D3D3D3D3D3D3DBB
:062E47003D3D3D3D3D0054
:102E4D004D4158494D414C202054454D504552411E
:062E5D00545552455300DC
:102E63004F696C2070616E2073656E736F723A00E8
:0F2E73002A2A5741524D494E472055502A2A00CE
:102E82003D3D3D3D3D3D3D3D3D3D3D3D3D3D3D3D70
:062E92003D3D3D3D3D0009
:0F2E9800496E74616B652073656E736F723A00DB
:102EA700000000000000005F00000007000700149A
:102EB7007F147F14242A7F2A122313086462364959
:102EC7005522500005030000001C2241000041224A
:102ED7001C00082A1C2A0808083E08080050300071
:102EE7000008080808080030300000201008040215
:102EF7003E5149453E00427F4000426151494621CB
:102F070041454B311814127F1027454545393C4A36
:102F17004949300171090503364949493606494986
:102F2700291E00363600000056360000000814221D
:102F37004114141414144122140800020151090603
:102F4700324979413E7E1111117E7F494949363E0A
:102F5700414141227F4141221C7F494949417F0923
:102F67000901013E414151327F0808087F00417F36
:102F770041002040413F017F081422417F404040EB
:102F8700407F0204027F7F0408107F3E4141413E9B
:102F97007F090909063E4151215E7F0919294646E5
:102FA7004949493101017F01013F4040403F1F200E
:102FB70040201F7F2018207F6314081463030478C0
:102FC7000403615149454300007F41410204081051
:102FD7002041417F0000040201020440404040407C
:102FE700000102040020545454787F484444383880
:102FF70044444420384444487F3854545418087E85
:10300700090102081454543C7F0804047800447DE5
:1030170040002040443D00007F10284400417F408D
:10302700007C041804787C08040478384444443845
:103037007C14141408081414187C7C080404084829
:1030470054545420043F4440203C4040207C1C20E2
:1030570040201C3C4030403C44281028440C505031
:10306700503C4464544C44000836410000007F0043
:1030770000004136080008082A1C08081C2A08080E
:020000040030CA
:0D000100220F0EFF0181FF0FC00FE00F4026
:00000001FF
