:02000000032AD1
:10000600063083120313FD00FD0B072800000800CD
:06001600000000000800DC
:0A001C000320061603200612080058
:100026007F30831203136305F1007108E300711F2B
:0E0036001F28061486102128061086140800C4
:10004400FF308316031388000B200B208312061540
:1000540006128615061603200808E3000612861108
:100064000B200B208316880183126308F00008001C
:100074008312031306118611B830630488000E201E
:02008400080072
:1000860083120313061206158611630888000E20D4
:02009600080060
:0E0098008312031352088A00510882000800E8
:1000A60083120313FB01FA01F9018030F800F10C09
:1000B600F00C031C67287408F90775080318750FF8
:1000C600FA070318FB0A0310F01F6F287408FA07D3
:1000D60075080318750FFB07FB0CFA0CF90CF80CE6
:1000E600031C5A287B08F3007A08F2007908F1000D
:0600F6007808F00008008C
:1000FC007F30831203136305F0007008E3000611D0
:10010C008611BF30F0057008E30070177008E3002B
:08011C00700888000E200800A5
:10012400831203134D085902F0004E08031C013ECC
:10013400F101F1024C08F400F50153207008E100CC
:100144007108E2005A08E3007E205B08E3003A20CD
:10015400DD014C085D020318FA285A08E300132055
:100164005B08E3003A205A08E3007E20222070084E
:10017400DE0022207008DE005A08E30013205B082A
:10018400E3003A205A08E3007E2061084F07F0009C
:1001940050080318013E6207F1007008D10071088D
:1001A400D2004C208A110A12F0007008DF00E10A24
:1001B4000319E20A7009E000E8286008DE00F42868
:1001C4005F08DE00F4285F08DE06F4285C08003AC5
:1001D4000319DF285C08013A0319E2285C08023A93
:1001E4000319E5285E08E3004320DA0ADD0AAB2898
:1001F4005A08E30013205B08E3003A205A08E3009E
:100204007E20FF30DF00E00113295F08DE005F0875
:10021400E30043201B296008DE006008E30043205C
:100224001B295C08003A031907295C08013A0319E1
:040234000D29080088
:1002380083120313D70157085307840000080319D2
:1002480037295708530784000008D9005408DA00F2
:100258005508DB005608DC0092204C0AF0007008B4
:08026800D407D70A1F29080082
:10027000153083120313FB004B30FC00BE30FD0031
:10028000FD0B4029FC0B4029FB0B40290000080016
:1002900083120313D601D701D8015608073C031C6B
:1002A0009A29E30113205608E3003A20E3017E2057
:1002B000D50155083F3C031C732957085307F0002C
:1002C00054080318013E5807F1007008D100710866
:1002D000D2004C208A110A12E3004320D70A0319E6
:1002E000D80AD50A59294030E30013205608E30004
:1002F0003A204030E3007E204030D50055087F3C56
:10030000031C982957085307F00054080318013EAE
:100310005807F1007008D1007108D2004C208A11F2
:100320000A12E3004320D70A0319D80AD50A7E2906
:06033000D60A4D29080069
:100336008312031306108614D5015508073C031CC7
:10034600B3295508E3003A20D40154083F3C031C66
:10035600B1295308E3004320D40AA829D50AA029C5
:1003660086100614D5015508073C031CC9295508F3
:10037600E3003A20D40154083F3C031CC729530824
:0E038600E3004320D40ABE29D50AB629080098
:1003940083160313861206120611861106108610A0
:1003A40083128612831688018312061186110610A1
:1003B400861486163F3088000E20C03088000E2038
:1003C400061486103F3088000E20C03088000E20AE
:1003D4000530CC000730CB000030CF000C30D0000B
:0A03E4002030CD000030CE000800EC
:1003EE004C208A110A128000840AD10A0319D20AFB
:0803FE00F003031DF7290800BC
:100406005826CA21D3019B210030D3000830D400DE
:10041600482138212D30D3000230D400482138211C
:10042600D3019B213530D300D4010130D5000230F1
:10043600D6001C212030D300D4010430D500013071
:0A044600D6001C2138210D2A272AB8
:100CB000203084002B3083120313F0002D30D1003C
:080CC0000630D200F721080004
:10045A000034003400340034003400340034F03402
:10046A00F834F834F834F834F834F8347834783422
:10047A007834783478347834783478347834783412
:10048A00183400340034F034F834F834F834F834DA
:10049A00F834F83478347834F834F834F834F834F2
:1004AA00F834F834F834F834003400340034F034D2
:1004BA00F834F834F834F834F834F83400340034C2
:1004CA000034E034F834F834F834F834F834F834D2
:1004DA00003400340034F034F834F834F834F834A2
:1004EA00F834F834783478347834783478347834A2
:1004FA007834783478347834183400340034F0346A
:10050A00F834F834F834F834F834F8347834783481
:10051A00F834F834F834F834F834F834F834F83471
:10052A00003400340034F034F834F834F834F83451
:10053A00F834F83478347834F834F834F834F83451
:10054A00F834F834F834F834003400340034003421
:10055A0000340034003400340034E034FF34FF3413
:10056A00FF34FF34FF34FF341F3401340034C03405
:10057A00F834FC34FC34FC34FC34FC347C34003471
:10058A000034E034FF34FF34FF34FF34FF34FF34E7
:10059A007F343F343C343C343E343F343F343F3480
:1005AA003F343F341F34033400348034C034C334FE
:1005BA00E734FF34FF34FF347F343E343C34FC34B8
:1005CA00FE34FF34FF34EF34C73483340334013448
:1005DA000034E034FF34FF34FF34FF34FF34FF3497
:1005EA007F343F343C34FC34FC34FC34FC34FC347B
:1005FA00FC34FC347C3400340034E034FF34FF34FF
:10060A00FF34FF34FF34FF341F3401340034C03464
:10061A00FC34FF34FF34FF34FF34FF343F340334F7
:10062A000034E034FF34FF34FF34FF34FF34FF3446
:10063A001F3401340034C034FC34FF34FF34FF3437
:10064A00FF34FF343F3403340034003400340034C0
:10065A0000340034003400341E341F341F341F3475
:10066A001F341F341F341F341E341E341E341F34EB
:10067A001F341F341F341F341F340734003400342E
:10068A001E341F341F341F341F341F341F340334E5
:10069A0000340034003400340034003400340034B0
:1006AA0000340034003400341E341F341F341F3425
:1006BA001F341F341F340334003400341C341F34F5
:1006CA001F341F341F341F341F34073400340034DE
:1006DA001E341F341F341F341F341F341F341F3479
:1006EA001E341E341E341F341F341F341F341F346B
:1006FA001F340734003400341E341F341F341F34AF
:10070A001F341F341F341F341E341E341E341F344A
:10071A009F349F349F349F341F340734003400348D
:10072A001E341F341F341F341F341F341F341F3428
:10073A001E341E341E341F341F341F341F341F341A
:10074A001F340734003400340034003400340034D9
:10075A0000340034003400340034003400340034EF
:10076A0000340034003400340034003400340034DF
:10077A00003400340034003400340034003480344F
:10078A008034C034E034F034F034F834F834F834D7
:10079A00703400340034003400340034003400343F
:1007AA00003400348034C034F034F834F8347C3403
:1007BA001E341F340F348634E034E034F83478348D
:1007CA007C347E343E341E341C3408340034003405
:1007DA00003400340034003400340034003400346F
:1007EA00003400340034003400340034003400345F
:1007FA00003400340034003400340034003400344F
:10080A000034E034703438343C341E341F340F342E
:10081A000F340F34073407340334003400340034FF
:10082A00003400340034003400348034803480349E
:10083A00803480348034003400340034003400348E
:10084A0000340034003400340034003400340034FE
:10085A0000340034003400340034003400340034EE
:10086A00003400340034003400348034C034E034BE
:10087A00E034F034F834FC343E341E34CF34F334EC
:10088A00FF34FF34FF34FF34FF343F34073403347A
:10089A0000348034C034E034F034F834FC34BE34EC
:1008AA00DE34EF34EF34F734F934F934FC34FE34FF
:1008BA00FE34FE347E34B83480348034C03460343C
:1008CA006034F034F034F834F834FC34FC34FE3458
:1008DA00FC34F834F034F0347834B834FC34FC3472
:1008EA00FE34FE34FE34FF34FF343F34BF349F34C9
:1008FA00EE34E034F034F834F834FC34FE347E3428
:10090A007E341E349834C034C034E034E034F034D9
:10091A00F034F834F834F83478347C347C343E34A7
:10092A009E349E34DE34FF34FF34FF34FF34BF3448
:10093A001F341F340F3403340034003400340034BD
:10094A0000340034003400340034003400340034FD
:10095A000034003400340034003400348034C034AD
:10096A00E034F034FC34FE34FF34FF34FF343F34D7
:10097A000F3403348134E034FE34FF34FF34FF345F
:10098A00FF34FF348F34F334F134F834FE34FE3458
:10099A007F343F34DF34EF34F334F934F834FC3441
:1009AA00FF34FF34FF347F343F341F341F340F3495
:1009BA008634E734F334F134F934FC34FE34FE344B
:1009CA007F341F340F340F3407346734F334F93467
:1009DA00FD34FF34FF34FF34FF34FF347F347F3477
:1009EA00B734D934E934FC34FE34FF34FF34FF34ED
:1009FA007F347F341F340F34F734FB34FE34FF3432
:100A0A00FF34FF34FF34FF34F734773473347334EC
:100A1A00393439341C341E34FE34FF34FF34FF3485
:100A2A00FF34FF34FF347F347734733479347834C5
:100A3A003C341C341C341C341E341E341E340F3413
:100A4A000F340F340F3406340634003400340034C3
:100A5A00003400340034003400340F341F341F349F
:100A6A001F340F340F340734033401340034003494
:100A7A0018343E343F343F343F343F343F341F341C
:100A8A001F341F340F340F34073407340134003451
:100A9A00003401340334033403340334033401349B
:100AAA00013400340034003400340034003400349B
:100ABA00003401340134033403340334033400347E
:100ACA0000340034003480348034E034F034F034BC
:100ADA00F134F134F934F9347C347E347F347F34A0
:100AEA007F341F341F34073407340134013400348F
:100AFA00003400340034F034F03410341134F33458
:100B0A00E3340134F034F0340034E034F034103497
:100B1A001034303420340034F034F03401341134D9
:100B2A001034F034F0341034103400340034C0344B
:100B3A0070347034C03400340034F034F03400348B
:100B4A0000340034003400340034003400340034FB
:100B5A0000340034003400340034003400340034EB
:100B6A0000340034003400340034003400340034DB
:100B7A0000340034003400340034003400340034CB
:100B8A0000340034003400340034003400340034BB
:100B9A0000340034003400340034003400340034AB
:100BAA00003400340034003400340034003400349B
:100BBA00003400340034003400340034003400348B
:100BCA00023402340334013401340134013401346F
:100BDA00003400340034003400340034003400346B
:100BEA00003400340034003400340034003400345B
:100BFA000034003400341F341F34103410341F34CE
:100C0A000F3400341F341F3400340F341F341034AF
:100C1A0011341F340F3400341F341F3400340034AD
:100C2A0000341F341F340034003400341C341F34A1
:100C3A00023402341F341C3400341F341F3410347D
:100C4A0010341034003400340034003400340034DA
:100C5A005234613464346934613474346F347234B4
:100C6A002034733465346E3473346F3472343A34E6
:0A0C7A002034393437344334003499
:100C8400543445344D34503445345234413454345E
:100C940055345234453420342034523445344134AC
:0C0CA400443449344E3447345334003497
:101000000034003400340034003400340034003440
:10101000003400340034003400340034E034E03470
:10102000E034E034E034E034E034E034E034E03420
:10103000E034E034E034E034E034E034E034E03410
:10104000E034E034E034E034E034E034E034E03400
:10105000E034E034E034E034E03400340034003490
:1010600000340034003400340034003400340034E0
:1010700000340034003400340034003400340034D0
:1010800000340034003400340034003400340034C0
:101090000034003400340034003420346034E03450
:1010A000E034E034E034E034E034E034E034E034A0
:1010B000E034E034E034E034E034E034E034E03490
:1010C000E034E034E034E034E034E034E034E03480
:1010D000E034E034E034E034E034E034E034E03470
:1010E000E034E034E034E0340034003400340034E0
:1010F0000034003400340034003400340034003450
:10110000003400340034003400340034003400343F
:10111000003400340034003400340034FF34FF3431
:10112000FF34FF34FF34FF34FF34FF34FF34FF3427
:10113000FF34FF34FF34FF34FF34FF34FF34FF3417
:10114000FF34FF34FF34FF34FF34FF34FF34FF3407
:10115000FF34FF34FF34FF34FF34003400340034F4
:1011600000340034003400340034003400340034DF
:1011700000340034003400340034003400340034CF
:1011800000340034003400340034003400340034BF
:101190000034003400348034C034E034F034FF34A0
:1011A000FF34FF34FF34FF34FF34FF34FF34FF34A7
:1011B000FF34FF34FF34FF34FF34FF34FF34FF3497
:1011C000FF34FF34FF34FF34FF34FF34FF34FF3487
:1011D000FF34FF34FF34FF34FF34FF347F343F34B7
:1011E0001F340F340334013400340034003400342D
:1011F000003400340034003400340034003400344F
:10120000003400340034003400340034003400343E
:10121000003400340034003400340034FF34FF3430
:10122000FF34FF34FF34FF34FF34FF34FF34FF3426
:10123000FF34FF34FF34FF34FF34FF34FF34FF3416
:10124000FF34FF34FF34FF34FF34FF34FF34FF3406
:10125000FF34FF34FF34FF34FF3420342034203493
:1012600020342034203420342034203420342034DE
:101270002034203420343034703470347034783476
:10128000F834F834F834F834FC34FC34FE34FE34EA
:10129000FE34FF34FF34FF34FF34FF34FF34FF34B7
:1012A000FF34FF34FF34FF34FF34FF34FF34FF34A6
:1012B000FF34FF34FF34FF34FF34FF34FF34FF3496
:1012C000DF34DF349F348F348F340F3407340734E6
:1012D0000734033401340134013400340034003461
:1012E000003400340034003400340034003400345E
:1012F000003400340034003400340034003400344E
:10130000003400340034003400340034003400343D
:10131000003400340034003400340034FF34FF342F
:10132000FF34FF34FF34FF34FF34FF34FF34FF3425
:10133000FF34FF34FF34FF34FF34FF34FF34FF3415
:10134000FF34FF34FF34FF34FF34FF34FF34FF3405
:10135000FF34FF34FF34FF34FF34003400340034F2
:1013600000340034003400340034003400340034DD
:1013700000340034003400340034003400340034CD
:1013800000340034003400340034013401340334B8
:1013900003340734073407340F341F343F34FF3429
:1013A000FF34FF34FF34FF34FF34FF34FF34FF34A5
:1013B000FF34FF34FF34FF34FF34FF34FF34FF3495
:1013C000FF34FF34FF34FF34FF34FF34FF34FF3485
:1013D000FF34FE34FC34F834F834F034F034E034C4
:1013E000C03480340034003400340034003400341D
:1013F000003400340034003400340034003400344D
:10140000003400340034003400340034003400343C
:101410000034003400340034003400343F343F34AE
:101420003F343F343F343F343F343F343F343F3424
:101430003F343F343F343F343F343F343F343F3414
:101440003F343F343F343F343F343F343F343F3404
:101450003F343F343F343F343F34003400340034B1
:1014600000340034003400340034003400340034DC
:1014700000340034003400340034003400340034CC
:1014800000340034003400340034003400340034BC
:10149000003400340034003400340034203430345C
:1014A0003F343F343F343F343F343F343F343F34A4
:1014B0003F343F343F343F343F343F343F343F3494
:1014C0003F343F343F343F343F343F343F343F3484
:1014D0003F343F343F343F343F343F343F343F3474
:1014E0003F343F343E343C34003400340034003464
:1014F000003400340034003400340034003400344C
:10150000003400340034003400340034003400343B
:10151000003400340034003400340034F034F0344B
:10152000F034F034003400348034C034E034F0342B
:10153000F034F0347034303410340034003400347B
:1015400000340034003400340034003400340034FB
:1015500000340034003400340034003400340034EB
:1015600000340034003400340034003400340034DB
:1015700000340034003400340034003400340034CB
:1015800000340034003400340034003400340034BB
:1015900000340034003400340034003400340034AB
:1015A000003400340034003400340034003400349B
:1015B000003400340034003400340034003400348B
:1015C00000340034F034F034F034F034F0340034CB
:1015D000003400340034003400340034003400346B
:1015E000703470347034703400340034003400349B
:1015F000003400340034003400340034003400344B
:10160000003400340034003400340034003400343A
:10161000003400340034003400340034FF34FF342C
:10162000FF34FF343E347F347F34FF34FF34FF34E3
:10163000F334C03480340034003400348C34CE347D
:10164000CE34EF34E734E73477347F34FE34FE347D
:10165000FC34F0340F347F34FF34FF34F834E0349A
:10166000F834FE34FF347F34FF34FC34F034F0348B
:10167000FC34FF34FF347F34073488348C34CE3468
:10168000CE34EF34673467347734FF34FE34FC34BF
:10169000F83400343C347E347F347F347334733414
:1016A000F734EF34EE34CC34803400348C34CE3420
:1016B000CE34EF34E734673477347F34FF34FE348C
:1016C000FC340034FF34FF34FF34FF34FF34F8348B
:1016D000FC34FC34FE34DE348E3406340234003400
:1016E000FE34FE34FE34FE34003400340034003462
:1016F000003400340034003400340034003400344A
:101700000034003400340034003400340034003439
:101710000034003400340034003400340F340F340B
:101720000F340F34003400340034003403340734F1
:101730000F340F340F340F340C34003407340F34AB
:101740000F340F340D340C340C340E340F340F348A
:101750000F340F340034003403340F340F340F349B
:101760000F340F340034003401340F340F340F348D
:101770000F340F340134003407340F340F340F3476
:101780000D340C340C340E340F340F340F340F344A
:101790000F34003407340F340F340E340C340C344F
:1017A0000C340F340F3407340334003407340F344F
:1017B0000F340F340C340C340E340F340F340F3418
:1017C0000F3400340F340F340F340F340F3401341E
:1017D000013403340F340F340F340C340834003424
:1017E0000F340F340F340F3400340034003400341D
:1017F0000034003400340034003400340034003449
:1018000000340034003400340034003400345F34D9
:101810000034003400340734003407340034143406
:101820007F3414347F34143424342A347F342A34FB
:101830001234233413340834643462343634493473
:101840005534223450340034053403340034003429
:1018500000341C3422344134003400344134223406
:101860001C34003408342A341C342A340834083434
:1018700008343E34083408340034503430340034F2
:101880000034083408340834083408340034303460
:10189000303400340034203410340834043402343A
:1018A0003E345134493445343E34003442347F347C
:1018B00040340034423461345134493446342134A4
:1018C000413445344B3431341834143412347F34B9
:1018D0001034273445344534453439343C344A34A3
:1018E0004934493430340134713409340534033413
:1018F0003634493449344934363406344934493469
:1019000029341E3400343634363400340034003484
:10191000563436340034003400340834143422345D
:10192000413414341434143414341434413422340F
:101930001434083400340234013451340934063488
:1019400032344934793441343E347E3411341134E4
:1019500011347E347F3449344934493436343E348A
:1019600041344134413422347F34413441342234CF
:101970001C347F3449344934493441347F34093488
:101980000934013401343E34413441345134323469
:101990007F340834083408347F34003441347F34D1
:1019A000413400342034403441343F3401347F34F6
:1019B00008341434223441347F34403440344034C9
:1019C00040347F340234043402347F347F340434AE
:1019D000083410347F343E344134413441343E3491
:1019E0007F3409340934093406343E3441345134E7
:1019F00021345E347F340934193429344634463472
:101A00004934493449343134013401347F340134A8
:101A100001343F344034403440343F341F342034A8
:101A2000403420341F347F342034183420347F3441
:101A30006334143408341434633403340434783491
:101A4000043403346134513449344534433400346C
:101A500000347F34413441340234043408341034C7
:101A60002034413441347F340034003404340234AF
:101A7000013402340434403440344034403440347F
:101A800000340134023404340034203454345434E7
:101A9000543478347F34483444344434383438341B
:101AA00044344434443420343834443444344834A2
:101AB0007F343834543454345434183408347E3435
:101AC00009340134023408341434543454343C346A
:101AD0007F340834043404347834003444347D349E
:101AE000403400342034403444343D340034003435
:101AF0007F34103428344434003441347F3440344B
:101B000000347C3404341834043478347C3408349D
:101B10000434043478343834443444344434383469
:101B20007C34143414341434083408341434143425
:101B300018347C347C340834043404340834483495
:101B4000543454345434203404343F344434403412
:101B500020343C344034403420347C341C34203431
:101B6000403420341C343C344034303440343C3431
:101B7000443428341034283444340C345034503431
:101B800050343C344434643454344C34443400349D
:101B90000834363441340034003400347F340034A7
:101BA0000034003441343634083400340834083406
:101BB0002A341C34083408341C342A3408340834D9
:02400E007A3BFB
:00000001FF
