:0A0000006228000000000000002844
:10000A0083160313141913281F301105F100710800
:10001A00003A031D13280130F0000800F00108001F
:10002A0083120313A201A3012308123C031D1F28F4
:10003A0022088E3C031C2B28052070080319262849
:10004A002B288312A20A0319A30A19288312123031
:10005A002302031D32288F302202031C37287B30EB
:10006A00F000080083161114111C3C283928F001ED
:02007A0008007C
:10007C008316031314139413071687153830831241
:04008C0094000800D4
:10009000831203138C11220893008316141D512818
:1000A0004D2883128C19552851288316111B5A2864
:0C00B000F001080011150230F0000800FB
:0800BC0083160313111508005F
:1000C40014308316031393003E201520D03083127E
:1000D4000313A20048208312A20148208030831217
:1000E400A20048208312A201482017308312A200E4
:1000F400482002308312A200482004308312A20058
:10010400482005308312A200482009308312A2003F
:1001140048205E201520D03083120313A20048200B
:100124008312A20148208312A20148205E2099284C
:04400E00F22F000786
:00000001FF
