:0A000000F12B0000000000000028B2
:06000A00000000000800E8
:0A0010002130FD00FD0B0A28080056
:10001A000F30FC004730FD00FD0B1128FC0B1128A6
:06002A00000000000800C8
:1000300083120313DE1B1E2886111F2886155E1BE4
:100040002328061124280615DE1A282886102928B8
:1000500086145E1A2D2806102E2806144B183228F6
:10006000061633280612861605208612DE193A284F
:1000700086113B2886155E193F2806114028061573
:10008000DE1844288610452886145E184928061074
:100090004A2806144B184E2806164F2806128616B4
:1000A000052086124B1C56280D20572808200800D2
:1000B000831203134B105D08DE0018204B14080058
:1000C0008316031314196E281F301105F1007108EF
:1000D000003A031D6E280130F0000800F00108000E
:1000E000831203138C11590893008316141D792869
:1000F000752883128C197D2879288316111B822874
:0C010000F001080011150230F0000800AA
:10010C00831603138612061206108610061186112A
:10011C0083128612061286110611861006100D2007
:10012C000D200D20861406148616052086120D202F
:10013C008616052086120D208616052086120D20A7
:10014C0006108616052086120D20861605208612AE
:10015C00861086158616052086120D20861106142B
:10016C0086160520861206108616052086120D208E
:10017C0086160520861206148616052086120D207A
:10018C00061086160520861286150615861406148A
:0C019C008616052086120D204B1408006A
:1001A800831203137008F100F0010830FC00710895
:1001B800F40C0318E328FC0BDC28F10100340310CD
:1001C800E828F40C0318F107F10CF00CFC0BE528F7
:0201D80008001D
:1001DA0083120313D901DA015A08123C031DF728C6
:1001EA0059088E3C031C0329602070080319FE2855
:1001FA0003298312D90A0319DA0AF1288312123061
:10020A005A02031D0A298F305902031C0F297B3019
:10021A00F000080083161114111C14291129F00189
:02022A000800CA
:10022C00831603131413941307168715383083128F
:04023C009400080022
:100240003229803083120313D9004529C030D900E8
:1002500045299430D9004529D430D900452980302A
:10026000D9004529831203135908013A031921299A
:100270005908023A031926295908033A031929296A
:100280005908043A03192C292F295A03F000590858
:10029000F0077008D9007008DE0018204B10DC0150
:1002A0005C085B078400000803195E295C085B0793
:1002B00084000008DD005820DC0A50294B14080097
:0E02C000831603139114911C6629632908000C
:1002CE007929803083120313D9008C29C030D900CC
:1002DE008C299430D9008C29D430D9008C298030C7
:1002EE00D9008C29831203135908013A031968297E
:1002FE005908023A03196D295908033A031970294E
:10030E005908043A0319732976295A03F00059083B
:10031E00F0077008D9004B147008DE0018204B103F
:0A032E005B08DE0018204B140800E5
:080338008316031311150800E0
:0E0340008312031347088A0046088200080053
:10034E0083120313F8010830FC00700DF80D7408C9
:10035E00F8020318B429F8070310F00DFC0BAC29B2
:02036E00080085
:10037000831203138C118316911583128C19C129D2
:10038000BD291308F1005908003A031DCA29831634
:100390009116CC298316911283128C118316111693
:0E03A00083128C19D429D0297108F0000800AE
:1003AE00ED20D03083120313D90070208312D901AF
:1003BE0070206021D1308312D90070200130831259
:1003CE00D900B82151088400700880000130D9008E
:1003DE00B82152088400700880000130D900B8217D
:1003EE0053088400700880000130D900B8215408E9
:1003FE008400700880000130D900B82155088400AF
:10040E00700880000130D900B821560884007008A9
:10041E008000D901B82157088400700880009C2103
:02042E000800C4
:1004300083120313510884000008D8007030580557
:10044000F2007208F000F00CF013F00CF013F00C56
:10045000F013F00CF0130A30F400D4200F305805DC
:10046000F1007108F00751088400700880005208FC
:1004700084000008D800F0305805F2007208F0003F
:10048000F00CF013F00CF013F00CF013F00CF01370
:100490000A30F400D4200F305805F1007108F0073D
:1004A0005208840070088000530884000008D800B7
:1004B00030305805F2007208F000F00CF013F00C28
:1004C000F013F00CF013F00CF0130A30F400D42009
:1004D0000F305805F1007108F007530884007008C8
:1004E00080005408840007300005F00054088400A0
:1004F00070088000550884000008D800F0305805C6
:10050000F2007208F000F00CF013F00CF013F00C95
:10051000F013F00CF0130A30F400D4200F3058051B
:10052000F1007108F0075508840070088000560833
:1005300084000008D80010305805F2007208F0005E
:10054000F00CF013F00CF013F00CF013F00CF013AF
:100550000A30F400D4200F305805F1007108F0077C
:100560005608840070088000570884000008D800EE
:10057000F0305805F2007208F000F00CF013F00CA7
:10058000F013F00CF013F00CF0130A30F400D42048
:100590000F305805F1007108F00757088400700803
:0405A00080000800CF
:1005A400A0218A110A128000840AC60A0319C70A04
:0805B400F003031DD22A080028
:1005BC00831603178801890186200130DE0018207C
:1005CC000C30DE00182014308316930016210130F5
:1005DC00D9000830DA002E30DB0067210130D90059
:1005EC000B30DA002E30DB0067212C30C8000230D3
:1005FC00D9000130DA004808DB0020210230D90094
:10060C000830DA003A30DB0067210230D9000B30B9
:10061C00DA003A30DB0067214230C8000130D900E3
:10062C000C30DA004808DB0020210C30DE001820EA
:02063C000800B4
:10063E00372B3E3083120313C800552B3A30C800B7
:10064E00552B2830C800552B2430C800552B203090
:10065E00C800552B3630C800552B3230C800552BEC
:10066E00831203135408013A0319202B5408023A3B
:10067E000319252B5408033A0319282B5408043A5E
:10068E0003192B2B5408053A03192E2B5408063A3E
:10069E000319312B5408073A0319342B0130D900B2
:1006AE000130DA004808DB0020210130D900063085
:1006BE00DA000A30F4005508F000A7213030700738
:1006CE00DB0067210130D9000730DA000A30F40070
:1006DE005508F000A7217808F00030307007DB00D5
:1006EE0067210130D9000930DA000A30F4005608CB
:1006FE00F000A72130307007DB0067210130D900F0
:10070E000A30DA000A30F4005608F000A721780803
:10071E00F00030307007DB0067210130D9000F3058
:10072E00DA0030305707DB0067210230D90006307F
:10073E00DA000A30F4005308F000A72130307007B9
:10074E00DB0067210230D9000730DA000A30F400EE
:10075E005308F000A7217808F00030307007DB0056
:10076E0067210230D9000930DA000A30F40052084D
:10077E00F000A72130307007DB0067210230D9006E
:10078E000A30DA000A30F4005208F000A721780887
:10079E00F00030307007DB0067210230D9000C30DA
:1007AE00DA000A30F4005108F000A721303070074B
:1007BE00DB0067210230D9000D30DA000A30F40078
:1007CE005108F000A7217808F00030307007DB00E8
:0407DE006721080087
:1007E2005C24DE224D30D1004C30D2005030D30098
:1007F2004F30D4004E30D5004A30D6004930D700B1
:10080200D7214D308312D1004C30D2005030D3006A
:100812004F30D4004E30D5004A30D6004930D70090
:1008220018224D08D1004C08D2005008D3004F08BE
:10083200D4004E08D5004A08D6004908D7001F2325
:100842000B30FB002630FC005D30FD00FD0B272C39
:10085200FC0B272CFB0B272C00000000F32B302C69
:1008B80020308400263083120313F0003630C6003F
:0808C8000430C700D222080031
:08086C00543468347534003483
:0808740057346534643400348C
:08087C00543475346534003476
:0C088400543469346D3465343A34003467
:08089000533461347434003468
:08089800463472346934003467
:0808A0004D346F346E34003456
:0808A800533475346E34003442
:0808B0003234303430340034DE
:04400E00F22F000786
:00000001FF
